:020000040800F2
:10000000380D0020A1010008451E0008AF160008A9
:10001000D917000865050008B52000080000000099
:1000200000000000000000000000000005200008A3
:100030001906000800000000471E000807200008FD
:10004000BB010008BB010008BB010008BB010008A0
:10005000BB010008BB010008BB0100081B0600082B
:1000600021060008270600082D060008BB0100082D
:10007000BB010008BB010008BB01000869050008BE
:10008000BB010008BB010008BB010008BB01000860
:10009000BB010008BB010008BB010008BB01000850
:1000A000BB010008BB010008BB010008BB01000840
:1000B000BB010008BB010008BB010008BB01000830
:1000C000BB010008BB010008BB010008BB01000820
:1000D000491E0008BB010008BB010008BB01000865
:1000E000BB010008BB010008BB010008BB01000800
:1000F000BB010008BB010008BB010008BB010008F0
:10010000BB010008BB010008BB010008BB010008DF
:10011000BB010008BB010008BB010008BB010008CF
:10012000BB010008BB010008BB010008BB010008BF
:10013000BB010008BB010008BB010008BB010008AF
:10014000BB010008BB010008BB010008BB0100089F
:10015000BB010008BB010008BB010008BB0100088F
:10016000BB010008BB010008BB010008BB0100087F
:10017000BB010008BB010008BB0100080000000033
:10018000BB010008BB010008DFF810D000F0D8F96F
:100190000048004785220008AFF30080380D00209A
:1001A0000648804706480047FEE7FEE7FEE7FEE711
:1001B000FEE7FEE7FEE7FEE7FEE7FEE7A520000814
:1001C000890100082DE9F05F0546002092469B4614
:1001D00088460646814640241BE02846414647465D
:1001E000224600F02EF953465A46C01A914110D3C8
:1001F00011461846224600F015F92D1A67EB010842
:100200004F4622460120002100F00CF917EB0009AF
:100210004E41201EA4F10104DFDC484631462A4647
:100220004346BDE8F09F00000649074A086850436E
:1002300043F23902104408604008704701490860E1
:1002400070470000200000206D4EC641D2B201E090
:1002500000F8012B491EFBD270470022F6E710B5CB
:1002600013460A4604461946FFF7F0FF204610BD24
:10027000421C10F8011B0029FBD1801A70472DE9A0
:10028000FE4F804681EA0300C00F0C46009021F02B
:10029000004123F00045B8EB0200A94105D24046D9
:1002A000214690461C460B46024623F00040104370
:1002B00047D0270DC7F30A00C3F30A510290401A32
:1002C000019040286BDAC3F3130040F4801B0098C0
:1002D000924620B10023D2EB030A63EB0B0B01988B
:1002E0005946C0F14002504600F09CF806460D46C3
:1002F00050465946019A00F0B4F810EB08006141ED
:10030000002487EA115284EAE7731A4340D0009A26
:1003100062B3019A012A4FEA075215DC001B61EB18
:1003200002014FF0004202EA0752CDE90042001CF0
:1003300041F5801132462B4600F0B4F803B0BDE819
:10034000F08F40462146F9E7001B61EB0201001CDB
:1003500041F5801300185B412018A2F5001747EB08
:10036000030140EAD570B6196D4111E06D084FEAFE
:10037000360645EAC0754FEA0752001B61EB0201E1
:10038000001C41F5801149084FEA30000019514125
:1003900032462B4603B0BDE8F04F00F074B8009829
:1003A000012240000023D0EB020263EBE0730098CF
:1003B00021464FEAE074B8EB000061EB0401E9E785
:1003C00083F000435BE781F0004158E7C1F30A5234
:1003D00010B5C1F3130140F2FF3341F480119A428A
:1003E00001DA002010BD40F233439A42A2F23342B8
:1003F00003DC524200F025F810BD904010BD00F023
:10040000004230F000400AD0C10D01F56071C0F328
:10041000160042EA0151C20840071143704700200C
:1004200001467047202A04DB203A00FA02F100203E
:1004300070479140C2F1200320FA03F31943904022
:100440007047202A04DB203A21FA02F0002170478D
:1004500021FA02F3D040C2F120029140084319462C
:100460007047202A06DBCB17203A41FA02F043EA14
:10047000E07306E041FA02F3D040C2F1200291405D
:1004800008431946704710B5141E73F1000408DACA
:10049000401C41F1000192185B411A4301D120F048
:1004A000010010BD2DE9F04D92469B4611B1B1FA05
:1004B00081F202E0B0FA80F220329046FFF7B2FFFC
:1004C00004460F4640EA0A0041EA0B0153465A46E9
:1004D000084313D0114653EA010019D0C8F1400275
:1004E0005046FFF7AEFF05460E4650465946424677
:1004F000FFF798FF084305D0012004E02046394665
:10050000BDE8F08D0020054346EAE0762C433743F2
:100510000A986305E40AA0EB08000022FD0A44EAF9
:1005200047540A3002D500200146E9E701051019B9
:100530006941DDE9084500196941BDE8F04DA2E7D0
:10054000064C074D06E0E06840F0010394E8070020
:1005500098471034AC42F6D3FFF71AFEB0280008D3
:10056000D0280008FEE70000014800F077B800003E
:10057000D408002001681823CAB2103AB2FBF3F283
:10058000054B6FF30901032A9B5CC36500D9091D64
:1005900081650846704700009728000810B501469D
:1005A00000208B698A6A4FF0C07453B1B3F5005FC5
:1005B00015D072B1012A0CD0022A0AD0032A09D11F
:1005C00004E01AB1012A06D0022A03D1C96AC9017E
:1005D00000D5012010BDC96AA142FAD010BD002A81
:1005E000F7D0012AF2D0022AF3D0032AF3D010BDAB
:1005F00030B50468256825F48025256004686360AB
:100600008368402B036803D099600068C26030BDE6
:100610009A600068C16030BD7047022000F044BAA3
:10062000042000F041BA082000F03EBA102000F08B
:100630003BBA72B6FEE790F83510022903D080214C
:10064000416501207047052180F835100068016878
:1006500021F0010101600020704700002DE9F843FE
:1006600004464FF00009CDF8009063484FF416514E
:10067000A56D0068B0FBF1F72E6894F85C100820B7
:1006800000FA01F131420FD021680A6852070BD5F8
:100690000A6822F004020A6094F85C108840A8609E
:1006A000606D40F00100606594F85C104FF0010847
:1006B00008FA01F0304208D021684969090604D5DA
:1006C000A860606D40F00200606594F85C10042042
:1006D0008840304208D021680968890704D5A8609D
:1006E000606D40F00400606594F85C101020884054
:1006F000304218D021680968090714D5A86020681D
:100700000168490304D50068000308D5A16C07E01F
:100710000168C90503D4016821F008010160216C5A
:1007200009B12046884794F85C1020208840304268
:1007300031D021680968C9062DD5A86094F8350024
:1007400005282068016806D0490347D500680003E2
:100750001DD4616C1CE021F0160101602068416924
:1007600021F080014161206C08B9A06C20B12068A3
:10077000016821F00801016094F85C103F20884076
:10078000A86084F8349084F83580216D1FE0E16B17
:1007900009B120468847606D00282BD0606DC007E6
:1007A00014D0052084F835002068016821F001018B
:1007B00001600098401C0090B84203D8206800688F
:1007C000C007F6D184F8349084F83580E16C0029B4
:1007D00010D001B02046BDE8F04308470168C905C4
:1007E000D5D4016821F01001016084F8349084F8B8
:1007F0003580CCE7BDE8F8831C0000202DE9F041EE
:10080000044600F065FA06465CB1002584F83450D1
:10081000022084F835002068016821F001010160A0
:100820000DE00120BDE8F08100F052FA801B0528A0
:1008300005D920206065032084F83500F2E72068A0
:100840000068C007F0D12268116820480140D4E94F
:1008500001031843D4E9033633431843636918434B
:10086000A3691843E3691843236A18430843616A7C
:10087000042903D1D4E90B131943084310602068FD
:100880004069666A20F0070130460E4301270428BC
:100890000CD1A06A0643E06A40B12046FFF77EFE15
:1008A00020B14020606584F83570BAE72068466161
:1008B0002046FFF75FFE94F85C203F219140816065
:1008C000656584F835700020ACE700003F8010F0CB
:1008D0002DE9F0410446866D90F83400002501288A
:1008E0000DD0012084F8340094F835700020012FD9
:1008F00007D084F8340002252846BDE8F0810220A4
:10090000FBE7022784F8357060652046FFF770FE2C
:1009100094F85C103F208840B0602068016841F086
:1009200016010160206C20B12068016841F00801C7
:1009300001602068016841F001010160DCE700000E
:1009400070B5044600F0C4F90546601C02D00448A6
:100950000078044400F0BCF9401BA042FAD370BDFB
:10096000100000202DE9F0474D4E4B4D4B4C4D4AA9
:1009700077104FF000084FF480516FF0020A022800
:100980001DD04FF00309042839D0082857D010286B
:100990007FD19246104600F08EF9206820B1606841
:1009A000C01C01D0C4E900890220401CB042FCDB1D
:1009B00054461021204600F079F9B0B365E0914625
:1009C000104600F078F92068032803D0606808B169
:1009D000C4E900A80220401CB042FCDB4C460221C6
:1009E000204600F063F920B105E000BF08F10108DE
:1009F000F5E7B845FADB286840F0020048E0924687
:100A0000104600F058F92068C01C03D0606808B197
:100A1000C4E900980220401CB042FCDB544604218B
:100A2000204600F043F920B105E02CE008F1010870
:100A3000F5E7B845FADB286840F0040028E0914665
:100A4000104600F038F9206820B16068032801D012
:100A5000C4E9008A0220401CB042FCDB4C4608215D
:100A6000204600F023F928B106E000BF08F1010894
:100A7000F5E70EE0B845F9DB286840F0080007E02C
:100A800008F1010895E7B845FADB286840F0100046
:100A90002860BDE8F0870000143C0140B408002045
:100AA000A0860100000C0240044910B50A68024209
:100AB00002D00860FFF756FF10BD0000143C014053
:100AC0002DE9F84FDFF8B8A1002201250AF1040B47
:100AD00003264FF00F090BF1040E00BF0B6805FA57
:100AE00002F42340A3426FD10F7907F00307012FCF
:100AF00001D0022F16D187684FEA420806FA08FC97
:100B000027EA0C07D1F80CC00CFA08FC4CEA070CD9
:100B1000C0F808C04768A7430C79C4F30014944098
:100B20003C4344600C79E443A4070AD0C4684FEA0C
:100B3000420C06FA0CF7BC438F6807FA0CF7274300
:100B4000C7600C7904F00304022C12D1D40800EB26
:100B5000840CDCF820405707FF0E09FA07F824EA56
:100B60000804D1F8108008FA07F848EA0408CCF81D
:100B7000208004684FEA420C06FA0CF7BC430F7958
:100B800007F0030707FA0CF7274307604C68E400F7
:100B900070D53C4C276847F480472760246822F0D2
:100BA000030704F480440094374C07EB040CDCF892
:100BB000084897074FEA177809FA08F7BC43334FFC
:100BC000B84202D1002724E054E0314FB84201D1AD
:100BD00001271EE02F4FB84201D1022719E02E4F06
:100BE000B84201D1032714E02C4FB84201D10427A9
:100BF0000FE02B4FB84201D105270AE0294FB84238
:100C000001D1062705E0284FB84201D1072700E0AF
:100C1000082707FA08F72743CCF80878DAF80040E5
:100C20005746D1F804C09C435FEACC3C00D51C4336
:100C30003C60DBF800405F46D1F804C09C435FEAAB
:100C40008C3C00D51C433C60DEF800407746D1F870
:100C500004C09C435FEACC2C00D51C433C60084F89
:100C60000C373C68D1F804C09C435FEA8C2C00D55B
:100C70001C433C60521C102AFFF430AFBDE8F88FD3
:100C8000003C014044380240003001400000024076
:100C90000004024000080240000C02400010024024
:100CA0000014024000180240001C02400069084085
:100CB00000D001207047426921EA02030A4043EA5A
:100CC0000241816170470AB1816170470904FBE705
:100CD00001488068704700001000002002488168C9
:100CE0000278114481607047100000200B4810B555
:100CF000016841F400710160016841F480610160A4
:100D0000016841F480710160032000F06FF8002059
:100D100000F006F800F024F8002010BD003C02406E
:100D200070B50D4D04464FF47A712878B1FBF0F0A0
:100D30000A490968B1FBF0F000F0A5FC48B9102C95
:100D400007D200222146501E00F030F800206C60CF
:100D500070BD012070BD0000100000201C000020AC
:100D60000A4808B5016841F480410160006800F458
:100D7000804000900548001F016841F080510160EB
:100D8000006800F08050009008BD00004438024028
:100D9000002809DB00F01F0201219140400980007A
:100DA00000F1E020C0F8001170470000F0B40E4BD5
:100DB0001B680C46C3F30223C3F10705042D00D9B9
:100DC0000425191D072901D2002300E0DB1E01269E
:100DD00006FA05F1491E214099409E40761E1640B4
:100DE0003143F0BC01F067B90CED00E0064900F0BA
:100DF000070208684FF6FF03184040EA0220034A42
:100E000010430860704700000CED00E00000FA0598
:100E10002DE9F0470E46050065D0DFF81481D8F8BB
:100E20000000F7B200F00700B04207D288F8007067
:100E3000D8F8000000F00700B04254D128683D4CBB
:100E4000810712D5400703D5206840F4E0502060A8
:100E50002878000703D5206840F4604020602068AF
:100E6000A96820F0F000084320602878C0072DD042
:100E7000304968680839012812D0022813D00328A5
:100E800011D00968890700292DDA216821F00301B2
:100E900001432160FFF71CFF814641F2883A0EE0D2
:100EA00009688903EFE709688901ECE7FFF710FF9C
:100EB000A0EB0901514502D90320BDE8F087206865
:100EC000696800F00C00B0EB810FEFD1D8F800108A
:100ED000404601F00701B14207D90770006800F0F1
:100EE0000700B04201D00120E7E72878400705D588
:100EF0002068E96820F4E050084320602878000763
:100F000006D52068296920F4604040EAC1002060CD
:100F100000F018F82168084AC1F30311515CC84079
:100F20000649086006480068FFF7FAFE0020C4E79B
:100F3000003C0240083802409F2800081C000020A6
:100F400014000020154810B5006810F00C02144879
:100F500013D04110042A0FD0082A0ED10F4C241FA1
:100F60002268236802F03F025B0207D52068C0F3C5
:100F70008810A0FB010106E0084610BD2168C1F3FE
:100F80008811A1FB00010023FFF71CF92168C1F3C0
:100F90000141491C4900B0FBF1F010BD0838024086
:100FA0000024F4002DE9F84F04006ED02078DFF81B
:100FB0004C93C007A9F104054AD009F10400016867
:100FC000C1F38101012908D00068C0F38100022823
:100FD0000AD1D9F80000400206D52868800337D529
:100FE00060680028E1D033E06068B0F5803F10D041
:100FF000B0F5A02F286810D020F480302860286831
:1010000020F4802028606068A8B1FFF761FE0646E2
:101010000DE0286840F48030F4E740F48020286038
:10102000F7E700BFFFF754FE801B642873D82868D9
:101030008003F7D50CE0FFF74BFE064605E000BF46
:10104000FFF746FE801B6428F0D828688003F7D499
:101050002078DFF8AC8280074FF0000A3ED5A74821
:10106000001D016811F00C0F08D00068C0F381006A
:1010700002280BD1D9F80000400207D42868800765
:1010800016D5E068012800D112E033E1E068B8B17C
:101090000120C8F80000FFF71BFE064605E000BF70
:1010A000FFF716FE801B0228C0D828688007F7D5F6
:1010B0002868216920F0F80040EAC10028600DE0AE
:1010C000C8F800A0FFF704FE064604E0FFF700FEA4
:1010D000801B02281FD828688007F7D420780007D3
:1010E00022D5864F87486169703771B1012101604F
:1010F000FFF7EEFD064604E0FFF7EAFD801B02283D
:1011000009D838688007F7D50EE0C0F800A0FFF7CF
:10111000DFFD064605E082E0FFF7DAFD801B0228CE
:101120007DD838688007F7D42078400768D5DFF885
:10113000CCB100270BF13C0BDBF80000C0000BD456
:10114000DBF8001041F08051CBF80010DBF8000014
:10115000012700F0805000906B4E3068C00510D41D
:10116000306840F480703060FFF7B2FD009005E019
:10117000FFF7AEFD0099401A022850D83068C0052C
:10118000F6D55E4EA0686C3601280FD00528306871
:1011900010D020F001003060306820F00400306092
:1011A000A068B8B1FFF794FD00900FE0306840F000
:1011B0000100F4E740F004003060F7E7FFF788FD36
:1011C0000099411A41F28830814266D83068800720
:1011D000F4D50EE0FFF77CFD009007E0FFF778FD07
:1011E0000099411A41F28830814256D83068800710
:1011F000F4D42FB1DBF8001021F08051CBF80010AF
:10120000A069C8B33D49091D0968C1F381010229DC
:101210004AD00228504607D0C8F8600000E03CE001
:10122000FFF756FD04463BE04746C8F86000FFF76D
:101230004FFD064605E000BFFFF74AFD801B022870
:101240002BD828688001F7D4D4E907010843A16AA4
:101250002E4A490802EB0141626A41EA82110843C1
:1012600094F82C1040EA0161C9F80010012038669A
:10127000FFF72EFD044606E03EE000BFFFF728FD25
:10128000001B022809D828688001F7D534E000BF88
:10129000FFF71EFD001B022802D90320BDE8F88FCE
:1012A00028688001F4D427E00128F7D0D9F800009D
:1012B000E26900F4800191421CD1226A00F03F01F2
:1012C000914217D147F6C071626A0140B1EB821FAB
:1012D00010D1A26A4FF0FF3300F4403103EB520209
:1012E000B1EB024F06D194F82C1000F07060B0EB17
:1012F000016F01D00120D1E70020CFE70438024080
:1013000000004742800E4742007000400000FFFF8F
:101310007047000038B5016804464A688868C043D1
:10132000430606D5C30704D1D3435B0601D4216C21
:1013300005E0830708D4D3431B0605D4616C01B0D4
:101340002046BDE830400847830603D5430601D553
:10135000C30551D4D3439B064ED443060AD494F814
:101360005130032B49D0636D43F004036365CB68B0
:101370008B680093830609D4636D43F001036365B2
:101380008B6800930B6823F040030B60C00506D404
:10139000606D40F008006065206880680090606DB6
:1013A000002829D02068416821F0E0014160012037
:1013B00084F85100900701D4D00722D020684168FA
:1013C00021F003014160114DE06C40B10565E06C16
:1013D000FFF731F918B1606D40F040006065A06C16
:1013E000002809D00565A06CFFF725F9002803D077
:1013F000606D40F04000606538BDC8688868009046
:1014000038BD2046FFF784FF38BD0000551E000898
:1014100070B5040009D0606A002540B1256165619E
:10142000A56294F8510040B10CE0012070BD6068E5
:10143000B0F5827FF4D0E561F2E784F850502046A1
:1014400000F044F8022084F851002068016821F07F
:1014500040010160A088218900F4827001F40441F8
:101460000843A18901F400610843217C01F00201D5
:101470000843217D01F001010843218B01F4007133
:101480000843217F01F03801084394F8201001F04F
:1014900080010843218D01F4005108432168086050
:1014A000A069042101EA104094F8241001F0100111
:1014B0000843216848602068C16921F40061C16166
:1014C0006565012084F85100002070BD70B586B0BC
:1014D000064614216846FEF7C0FE2349306888425C
:1014E0003FD122480025016841F480410160006835
:1014F00000F4804005901D481038016841F0020159
:1015000001600068694600F0020005904FF4204039
:1015100000900220CDE901050320039005200490EE
:101520001348FFF7CDFA144C1248C4E900054020D7
:10153000C4E902050001C4E90405A561E56125626D
:1015400020466562FFF75AF908B1FFF772F8B464F4
:10155000002211462420A663FFF728FC2420FFF771
:1015600017FC06B070BD0000003800404038024053
:101570000004024070600240D40800202DE9F041D0
:10158000044690F850000026012809D0012784F86D
:10159000507094F851000025012804D002264EE036
:1015A0000220BDE8F08189B182B1032084F85100A6
:1015B00065652163A286E286A56365642564A587C7
:1015C000E587A068B0F5004F02D00BE0012636E0B9
:1015D0002068016821F0400101602068016841F441
:1015E00080410160A16C18480864A16C1748C86369
:1015F000A16C1748C864A06C0565E38E2268216B56
:101600000C32A06CFFF764F938B1606D40F0100047
:101610006065012684F8517011E020680168490670
:1016200003D4016841F0400101602068416841F045
:10163000200141602068416841F00201416084F866
:1016400050503046ADE70000871E0008911E00088C
:10165000651E000810B50068084988420CD1084C86
:10166000411501222046FFF72EFB2046BDE8104021
:101670004FF40041FFF71FBB10BD000000380040D1
:10168000000C0240704710B5401EB0F1807F01D3BE
:10169000012010BD4FF0E02460610F21601700F0C1
:1016A0000AFD0020A06107202061002010BDFEE798
:1016B00070B586B014216846FEF7CFFD324800248D
:1016C000016841F004010160016801F00401059125
:1016D000016841F080010160016801F0800105911D
:1016E000016841F002010160016801F00201059109
:1016F000016841F008010160016801F008010591ED
:10170000016841F0010101600068204E00F0010015
:101710004FF4B8550590002229463046FFF7D3FA1A
:1017200001200095CDE90104694630460394FFF796
:10173000C7F91E2000901648CDE9010469463046DD
:10174000FFF7BEF9002211460720FFF72FFB072005
:10175000FFF71EFB002211460820FFF727FB082099
:10176000FFF716FB002211460920FFF71FFB092097
:10177000FFF70EFB002211460A20FFF717FB0A2095
:10178000FFF706FB06B070BD30380240000C024087
:10179000000011100F4810B50D4901604FF482711F
:1017A000416000218160C1604FF400720161C0E9B5
:1017B00005120822C0E90721416281620A21C16243
:1017C000FFF726FE002801D072B6FEE710BD00002C
:1017D000003800401C020020FEE700000020044901
:1017E00002464FF4FC730A54401C9842FBDB7047DE
:1017F000240000202DE9F84F0746C2F10100994668
:101800000E46002455B24FFA80F80A98A0B3711919
:10181000CBB207EB040BA7EB040A0BF0FF02C9B233
:101820000AF0FF00CDF8009000F09AF8711BCBB2DF
:101830000BF0FF02C9B20AF0FF00CDF8009000F0F3
:101840008FF83119CBB207EB050BA7EB050A0BF0AC
:10185000FF02C9B20AF0FF00CDF8009000F080F856
:10186000311BCBB20BF0FF02C9B20AF0FF00CDF87A
:10187000009000F075F846E0FFE7381906EB050A1E
:1018800000900AF0FF01C0B24A4600F06FFAA7EBE1
:10189000040B0AF0FF010BF0FF004A4600F066FA65
:1018A0000098A6EB050A0AF0FF01C0B24A4600F014
:1018B0005DFA0AF0FF010BF0FF004A4600F056FA0D
:1018C000781906EB040A00900AF0FF01C0B24A46FC
:1018D00000F04CFA0AF0FF01A7EB050A0AF0FF003E
:1018E0004A4600F043FA0098A6EB040B0BF0FF0108
:1018F000C0B24A4600F03AFA0BF0FF010AF0FF00CE
:101900004A4600F033FAB8F1000F07DA08EB44005A
:10191000C01C641C4FFA80F864B209E0611B08EB3C
:101920004100401D641C6D1E4FFA80F864B26DB218
:10193000AC427FF76AAFBDE8F88F2DE9F0411F4652
:10194000154688460646002406E03019C0B23A46DD
:10195000414600F00BFA641CAC42F6DBBDE8F081B6
:101960002DE9F04114462DED048B0D46A0420A9E50
:1019700004D9294604461D4610460B469D4205D90A
:10198000014620460C4629461D460B469D420ED177
:10199000A04202D9014620460C46211ABDEC048B18
:1019A000CAB233462946BDE8F041FFF7C6BFA042A0
:1019B0000ED19D4202D929461D460B46591BBDEC4E
:1019C000048BCAB233462946BDE8F04100F0D8B8CE
:1019D000221AA3EB050101D4174600E05742B1F1EA
:1019E000000C01DAC1F1000C9FED439B674543DD1C
:1019F00000EE101AA042F8EEC00A00EE102AB8EE6F
:101A0000C00AC0EE808A00EE105AB8EE408A1AD999
:101A100045B212E018EE100AFEF7F1FC53EC192B58
:101A2000FEF72DFCFEF7D2FCC1B2E8B2324600F060
:101A30009DF938EE688A6D1E6DB2A542EADABDECFA
:101A4000048BBDE8F081054613E000BF18EE100AD4
:101A5000FEF7D5FC53EC192BFEF711FCFEF7B6FC94
:101A6000C1B23246284600F081F938EE288A6D1C52
:101A7000EDB2A542EAD9E2E700EE102A9D42F8EE67
:101A8000C00A00EE101AB8EEC00AC0EE808A00EE5E
:101A9000100AB8EE408A16D95C1C11E018EE100A44
:101AA000FEF7ADFC53EC192BFEF7E9FBFEF78EFCBD
:101AB000C0B2E1B2324600F059F938EE288A641E0D
:101AC000AC42EBDCBBE75C1C12E000BF18EE100A76
:101AD000FEF795FC53EC192BFEF7D1FBFEF776FCD5
:101AE000C0B2E9B2324600F041F938EE288A6D1CE6
:101AF000A542EBDBA3E70000000000000000E03F90
:101B00002DE9F0438846DDE9079104461D46164657
:101B1000A24201D2144606464046454501D29846A7
:101B2000054681B127460AE0444605E0E1B2F8B235
:101B30004A4600F01BF9641CAC42F7DD7F1CB7423B
:101B4000F2DDBDE8F083371BFAB24B464146204632
:101B5000FFF7F3FEFAB24B4629462046FFF7EDFEAB
:101B6000A5EB0805EAB24B464146204600F008F8CE
:101B7000EAB24B4641463046BDE8F043AFF3008041
:101B80002DE9F0411F4615460E468046002406E02A
:101B90003019C1B23A46404600F0E8F8641CAC4245
:101BA000F6DBBDE8F08110B500F0C4F8002121207B
:101BB00000F022F900281ED00021C02000F01CF9FE
:101BC000002818D00021072000F016F9002812D0B4
:101BD0000021132000F010F900280CD00021202053
:101BE00000F00AF9002806D000210C2000F004F9CA
:101BF000002800D0012010BD2DE9FF4F3C4882B0E5
:101C0000016891F8018088780E78A2EB00005FEA05
:101C1000487308F0FF02F4B214FB02F24FEAD2025A
:101C200000FB02F0059A00F1040082F0010280B28C
:101C3000009207D081460724DFF8B4B011F809A05C
:101C4000002752E00027019026E0002521E00198BE
:101C5000002400EB050B039800EBC70A029800EB89
:101C6000050923480121A140006807FB060010F880
:101C70000B0001420AEB0400C1B209F0FF0001D0E1
:101C8000059A00E0009A00F071F8641C082CE8DB6B
:101C90006D1CB542DBDB7F1CB7EBD80FD5DB06B084
:101CA000BDE8F08F00251DE00120A04010EA0A0FDA
:101CB00003982844C1B202983844C0B201D0059AB2
:101CC00000E0009A00F052F8641E64B2002C08DABA
:101CD00009F10100DBF800101FFA80F9072411F860
:101CE00009A06D1C4545DFDB7F1CB742DADBD6E778
:101CF000000000202DE9F04780460D4899468A46AD
:101D00000068154607781046FEF7B2FAC6B20024FE
:101D10000AE000BF04FB078015F8012BC0B24B4658
:101D20005146FFF769FF641CB442F3DBBDE8F0875E
:101D30000000002070B5094D4FF480740022214648
:101D40002846FEF7C0FF6420FEF7FAFD214628462C
:101D5000BDE870400122FEF7B6BF0000000C024053
:101D600001490860704700000000002010B55428A9
:101D700013D2302911D2CB08C3EBC30303EB4303C7
:101D800000EB8300054C012301F007018B40215C2F
:101D90000AB1194300E09943215410BD24000020EA
:101DA00070B50021802000F027F800281DD0002108
:101DB000402000F021F8002817D00D4E0B4C4FF4B6
:101DC000FC7500224FF400713046FEF77CFF0122C3
:101DD00091023046FEF777FF2A4621460548FFF775
:101DE000CDFB0A20FEF7ACFD012070BD24000020D1
:101DF000000C02401C02002073B5104E0C464FF43C
:101E00000075002229463046FEF75DFF69004CB19F
:101E1000012C4FF0010206D029463046FEF753FF51
:101E200000207CBD00223046FEF74DFF01226946AE
:101E30000348FFF7A3FB01207CBD0000000C02401B
:101E40001C020020FEE770470148FFF763BA00005C
:101E50001C02002010B5806B0021C187C186FFF7EE
:101E600057FA10BD10B5806B01684A6822F0030272
:101E70004A60416D41F010014165012180F8511027
:101E8000FFF746FA10BD10B5806BFFF7FBFB10BDE6
:101E900038B50546846BFEF71BFF024628680068CC
:101EA000C00523D42068416821F0200141602068EA
:101EB000416821F0020141606421204600F01AF8D7
:101EC00018B1606D40F020006065A068002118B96D
:101ED0002068C26880680090E186012084F8510083
:101EE000606D18B12046FFF713FA38BD2046FFF7A2
:101EF000B1FB38BD38B504461248134B0068B0FB3F
:101F0000F3F04FF47A73584300906068B0F5827F25
:101F10000DD10B46009200228021204600F016F8D9
:101F200070B1606D40F020006065032038BD0098FE
:101F300030B1401E009020688068C0430006F6D58E
:101F4000002038BD1C00002000366E012DE9F8434A
:101F50001E46914688460446089DFEF7B9FE401B82
:101F6000351AFEF7B5FE074625480068C0F3CB30AA
:101F7000684338E0701C37D0FEF7AAFEC01BA842A9
:101F800003D215B1009860B32CE02068416821F0BD
:101F9000E00141606068B0F5827F0BD1A068B0F5C8
:101FA000004F02D0B0F5806F04D12068016821F0A5
:101FB00040010160A06AB0F5005F09D120680168A6
:101FC00021F4005101602068016841F40051016072
:101FD000012084F85100002084F850000320BDE85F
:101FE000F8830025401E00902068816838EA0100CF
:101FF00004D000214945BDD10020F0E70121F9E7D7
:102000001C0000207047FEF769BE000030B593B099
:1020100030216846FEF721F914210CA8FEF71DF9BE
:102020001E480025016841F080510160006800F001
:10203000805011901A48016841F4804101600068A5
:10204000022400F4804011900120009000040190CF
:102050008001CDE90640082008904FF4A870CDE932
:10206000090404200B906846FEF79CFF08B172B685
:10207000FEE70CA90F2081E831004FF4A0500F902B
:102080004FF48050109005210CA8FEF7C1FE0028E7
:1020900001D072B6FEE713B030BD000040380240F8
:1020A000007000400248016841F47001016070470F
:1020B00088ED00E0FEE70907090E002804DB00F1C7
:1020C000E02080F80014704700F00F0000F1E020DD
:1020D00080F8141D704702E008C8121F08C1002ACA
:1020E000FAD170477047002001E001C1121F002A99
:1020F000FBD1704770B50C490020A1F5CA62D1E947
:1021000000340A4949680AE002EB00152E68B34220
:1021100004D16D68AC4201D1002070BD401C8842E2
:10212000F2DB012070BD0000C40800200400002084
:1021300070B50024064D074E06E000BF05EB041005
:1021400003C800F057F9641C70688442F6DB70BD68
:1021500074020020040000201CB5012200920192AC
:102160004A1CD3B2421C491E401ED2B2C9B2C0B2F0
:10217000FFF7C6FC1CBD000010B51C4C0120206000
:10218000A1680A2091FBF0F200FB12113031297096
:102190000122A16809E000BF91FBF0F191FBF0F38F
:1021A00000FB13133033AB54521C91FBF0F3002BA4
:1021B000F2D1A160FFF712FB0D48FFF7D1FD01231B
:1021C0000CA20C210F20FFF795FD01232A461921AF
:1021D0002420FFF78FFDFFF7E3FD41F28830FEF783
:1021E000AFFB00F00DF80020206010BD04000020BF
:1021F0005926000847616D65204F76657200000022
:102200002DE9F0411C4804220024C0E901240121E9
:102210001A480625531A01EB410600EB0313491C2B
:10222000C3E900659142F5DD0168816041681726C8
:10223000134D0F27C0F80C10FDF7F6FF90FBF6F1D9
:1022400006FB1100401C00EB40002860FDF7ECFF8E
:1022500090FBF7F107FB1100401C00EB40006860A9
:10226000FFF748FF0028E7D0054803211038C0E9F0
:102270000014BDE8F081000004000020740200207A
:10228000C408002008B5FEF731FDFFF7BFFEFFF7D9
:102290000FFA1448016841F400110160006800223F
:1022A00000F40010009011460F20FEF77FFD0F2074
:1022B000FEF76EFDFFF76EFAFFF775FC00F0A4F86D
:1022C000FFF79EFF084D094C28680028FCD1FFF756
:1022D00085FAD4E90001FFF73FFF00F009F8FFF7A6
:1022E0005FFDF1E73038024004000020C408002000
:1022F00070B500253C4E3D4C2CE0002D66D004EB23
:10230000051050F808190161C168416101688160D8
:102310004168C16004EB05100168542901DB5439A0
:102320000160002901DC543101604168302901DB82
:1023300030394160002901DC303141604DB1216804
:102340000268914205D161684068814201D1FFF77E
:1023500013FF6D1C70688542CFDB4FF4FA70FEF7F7
:10236000EFFA234D2068296888422BD1606869689C
:10237000884227D1706804EB0011401C51F8082DE9
:1023800017248A604A68CA607060B068401CB060F8
:102390005FF00F06FDF748FF90FBF4F104FB11001E
:1023A000401C00EB40002860FDF73EFF90FBF6F17B
:1023B00006FB1100401C00EB40006860FFF79AFE2E
:1023C0000028E7D0BDE87040FFF7B2BE206808499A
:1023D000A06062681039E2600B68184420604868A9
:1023E0001044606096E700000400002074020020A2
:1023F000C408002008B5002201230092C9B2C0B26F
:102400001A46FFF7F7F908BD38B5FFF7E7F9424874
:10241000FFF7A6FC012341A203210C20FFF76AFC71
:102420004148FFF79DFC012340A20F211620FFF732
:1024300061FC012519234A22194614200095FFF753
:102440008FFA1324C4F12D00C1B2E0B20122FFF7CC
:102450008DFC641E0A2CF5DA5FF04804C4F16200BA
:10246000C1B2E0B20122FFF781FC641E3F2CF5DA15
:1024700024233F22194609200095FFF771FA1D23F6
:102480002122194610200095FFF76AFA1D233422F5
:10249000194645200095FFF763FA2424C4F13E0055
:1024A000C1B2E0B20122FFF761FC641E1B2CF5DA19
:1024B00021231D2219460C200095FFF751FA2123F4
:1024C0003022194641200095FFF74AFA5FF03704A1
:1024D000C4F15100C1B2E0B20122FFF747FC641E13
:1024E0002E2CF5DA0C48FFF73BFC05244FF47A75E7
:1024F00004F13000C2B201231B212620FFF77CFB30
:10250000FFF74EFC2846FEF71BFA641E012CEFDA9B
:10251000BDE83840FFF744BC5926000850726F6A86
:1025200065637420494900003825000847616D65DE
:102530002053616E6B6500000406205F00000003FD
:10254000A000C00C00F94F806BEB00988C8052A566
:102550008003000001C88089C00050850021C200AE
:10256000084000208200002000188C00FA2F804BC9
:10257000E0805A66808AA500E08F80EAAB0072A9ED
:10258000009A8C00FAAF804AA70001400009400081
:1025900021488051450089420042660072A6807A37
:1025A0008780FAA500722500FA2700FAA880FA8829
:1025B00000722B00F88F808BE8808BE800F88D800C
:1025C000F82080F90F80F9CF80722700FA8400721A
:1025D0002740FA85804AA90083E800F02F00E06ECA
:1025E00000F0EF00D88D80C0EC009AAC8003E8804A
:1025F000C081808BE000420400082080020400318A
:102600002380F92300312480312F8031628023EA36
:1026100000255380F9038002E00006E000F84280C4
:1026200003E0007987803903803123007D23003166
:1026300027C078840029400043E4007027006066CA
:102640000070670048C48074578059E68023E88092
:102650000360008BE200610C000608205F000000B0
:102660000000000000002F0000000007000700002D
:10267000147F147F1400242A7F2A12002313086475
:102680006200364955225000000503000000001C7E
:10269000224100000041221C000014083E081400E2
:1026A00008083E0808000000A060000008080808AC
:1026B00008000060600000002010080402003E5185
:1026C00049453E0000427F400000426151494600BA
:1026D0002141454B31001814127F10002745454514
:1026E00039003C4A49493000017109050300364967
:1026F00049493600064949291E00003636000000C7
:10270000005636000000081422410000141414146E
:102710001400004122140800020151090600324948
:1027200059513E007C1211127C007F494949360004
:102730003E41414122007F4141221C007F494949DD
:1027400041007F09090901003E4149497A007F089B
:1027500008087F0000417F4100002040413F010008
:102760007F08142241007F40404040007F020C025D
:102770007F007F0408107F003E4141413E007F09F9
:10278000090906003E4151215E007F0919294600D2
:1027900046494949310001017F0101003F40404065
:1027A0003F001F2040201F003F4038403F0063147F
:1027B0000814630007087008070061514945430089
:1027C000007F414100AA55AA55AA55000041417F0A
:1027D00000000402010204004040404040000003A9
:1027E000050000002054545478007F4844443800C9
:1027F000384444442000384444487F0038545454FA
:102800001800087E0901020018A4A4A47C007F0817
:102810000404780000447D4000004080847D000076
:102820007F102844000000417F4000007C04180411
:1028300078007C0804047800384444443800FC24C0
:102840002424180018242418FC007C080404080020
:10285000485454542000043F444020003C40402051
:102860007C001C2040201C003C4030403C004428A0
:10287000102844001CA0A0A07C004464544C4400D8
:1028800000107C8200000000FF00000000827C102D
:1028900000000006090906000610160006101600C2
:1028A0000000000000000001020304060708090000
:1028B000D02800080000002024000000D6200008D6
:1028C000F428000824000020140D0000E620000871
:1028D0005926000800000000000000000000000071
:1028E0000100000010000000000000000024F400BF
:0428F00000000000E4
:040000050800018965
:00000001FF
